:020000040000FA
:10000000F8040020D5000000FB000000FD00000007
:1000100000000000000000000000000000000000E0
:10002000000000000000000000000000FF000000D1
:1000300000000000000000000101000003010000BA
:100040000501000005010000050100000501000098
:100050000501000005010000050100000501000088
:100060000501000005010000050100000501000078
:100070004D06000099060000050100000501000082
:100080000501000005010000050100000501000058
:100090000501000005010000050100000501000048
:1000A0000501000005010000050100000501000038
:1000B0000501000005010000050100000501000028
:1000C0000348854600F046F800480047E90700006D
:1000D000F80400200C480D4901600D4901600D49EC
:1000E00001600D4A0D4911600D4A0E491160002151
:1000F00001600D4880470D480047FEE7FEE7FEE738
:10010000FEE7FEE7FEE700000001004059000000A6
:10011000160000008800000024000040A55A0000DE
:10012000800200400100000015060000C100000030
:10013000D2B201E00270401C491EFBD2704700227F
:10014000F6E710B513460A4604461946FFF7F0FFD6
:10015000204610BD064C0125064E05E0E36807CC9D
:100160002B430C3C98471034B442F7D3FFF7ACFF55
:10017000B4080000D4080000F0B5134C01261BE0C1
:10018000E0606160212801D11D68A5602661BFF390
:100190006F8F2569ED07FCD125686F0603D52560B3
:1001A0000020C043F0BD002802D0222808D001E082
:1001B000A5681D60091D1B1D9142E1D30020F0BD03
:1001C000FF31FF310231F6E700C0004038B50124AD
:1001D000A4036B46221D21460020FFF7CDFF002817
:1001E00001DA204638BD6400F3E70000F8B50027C7
:1001F000144A0C4605460F606B46111F3846FFF740
:10020000BBFF0098104EC00703D0306828602760FD
:10021000F8BD0C4A6B46121D111F0020FFF7ACFF02
:1002200000980203120B00923068824201D8D10577
:1002300006D00090286030680099401A2060F8BD10
:100240001046F7E7040030002400002010B501201C
:10025000800701680905090F012904D00168090513
:10026000090F062902D101680029FCD10F48416815
:100270000422114341600E480168092211430160C4
:10028000FFF7A4FF0B4908600B490C48FFF7AEFFCE
:100290000B4801680B4841430B48416100218161D3
:1002A000016905221143016110BD000000020040F8
:1002B00000C00040240000202C0000202800002066
:1002C00004000020E093040000E000E08307FF2228
:1002D000DB0E9A408907090E994000280BDA0007C7
:1002E000000F0838830808489B001818C369934317
:1002F0000B43C3617047830804489B0018180368C8
:1003000093430B430360704700ED00E000E400E01E
:10031000F3B583B0039F864E049D3C680020706057
:10032000334608330321834A0905083D0837009303
:10033000FFF722FFB0680221019008400290A42C30
:1003400018D0002C7AD0FF2C6FD07B48A62C0461EB
:1003500014D001208007B12C13D0AB2C14D0AC2CBE
:1003600012D0AD2C10D0AE2C26D0A02C28D0A32C8F
:1003700026D045E039687048C160E6E73420307225
:100380005CE00068B060BDE0032141606B49AB2CCC
:1003900009D00868AC2C0AD04008400008606949C0
:1003A0006748C860FEE7086880088000F6E78008B4
:1003B000800002221043F1E75F490120C860A1E0FC
:1003C0005D488269C069824200D302460023194613
:1003D0002220FFF7D1FEA32C0FD157480023C1697B
:1003E000006A0A182220FFF7C7FE0198022108437D
:1003F000B0600021009800F0C1F94F490120486128
:10040000A02C13D0C32C04D0A12C1ED0FF2C2BD099
:1004100014E04948C1690160006A002872D00A18D6
:1004200000232220FFF7A8FE03E01DE04249002040
:10043000086079684048083D083741603E4C2069B3
:10044000A02845D0C32843D05CE03B4902984969C5
:10045000084357D03846009900F090F936492031CA
:10046000081FFFF7C3FE4DE0334D2968A8680A1A3C
:100470002A606968144608186860334804400320FD
:10048000000584423ED22A4B214640330020FFF72C
:1004900073FE0023221D21462220FFF76DFE244B10
:1004A0002146403321202A68FFF766FE2888012272
:1004B000A968C0055202C00D511A884222D3E21D1C
:1004C000FF32FE320023111F2220FFF755FE19E0F4
:1004D0006068A84200D20546401B606021683B4628
:1004E0004A192120FFF748FE29463846FFF727FE24
:1004F00021683B464A190020FFF73EFE2068A560B0
:100500004019206000210846049B039A03E0145C14
:10051000611889B2401C9842F9DB31800649C868ED
:10052000401C7060401CC860002005B0F0BD000099
:1005300034000020100030000C00002000C00040FB
:100540000400FA0500ED00E000FE0F00054A00215E
:1005500083691B02FCD4535C0360491C4029F7D318
:10056000704700003400002010B559232748162298
:1005700088210360026001600468002CF9D02448DF
:100580000168042211430160214940310A69D20601
:10059000FCD5026907231A430261026A120912019B
:1005A00002620A6801231B041A430A6081685A0028
:1005B0001143816041690722120791430322120708
:1005C00089184161016A0F22120391430162816817
:1005D0009A00114381604169072212069143032268
:1005E000120689184161016A09090901016298032B
:1005F000416B090A090277314163816BFF221204C2
:100600009143DD2212048918816310BD000100406E
:100610000002004010B559210A48162388220160C3
:10062000036002600468002CF9D007490B680722B8
:10063000120593430B600B6813430B6000210160AC
:1006400010BD0000000100400002004070B50F4DD9
:10065000EC6911200E4B04420DD00E4EA8694004E7
:1006600009D4D878402806D22968D8783218401C96
:10067000D8701170F2E7D9780020402903D0E10644
:1006800000D5D87070BD01219970FAE700200740AD
:1006900030000020B402002070B50F4DEC6911202D
:1006A0000E4B04420DD00E4EA869400409D4587870
:1006B000402806D2296858783218401C58701170AA
:1006C000F2E759780020402903D0E10600D55870A0
:1006D00070BD01211970FAE70010074030000020BA
:1006E0007402002010B50D4C206BC008C0002063C0
:1006F0000320E0600A48A0600A486062206A000A9D
:1007000000024030206202210D20FFF7DFFD0120B2
:100710000549400308600548606010BD00100740AF
:10072000300003009F01003000E100E011080000EC
:1007300010B50D4C206BC008C00020630320E060A2
:100740000A48A0600A486062206A000A000240303D
:10075000206202210C20FFF7B9FD012005490003AA
:1007600008600548606010BD0020074030000300AD
:100770009F01003000E100E011080000F3B5104CCB
:1007800020681027384320600E4DA60100232A461A
:1007900031462220FFF7F0FC2A4631462120009BFB
:1007A000FFF7EAFC0198002805D0034631462A46A7
:1007B0000020FFF7E1FC2068B8432060FCBD00008A
:1007C00000C000400800300002E008C8121F08C145
:1007D000002AFAD170477047002001E001C1121FC2
:1007E000002AFBD170470000FFF7BEFEFFF77AFF3B
:1007F000FFF79EFFFFF72AFD224B2349234F244A90
:10080000244D254E00240878042802D22878012897
:1008100004D11868AE281DD02C700C7010780428F4
:1008200002D23078012804D13868AE2812D0347052
:1008300014701A480069C003E5D503200121890717
:100840004860174801688908890001601649154801
:10085000C860FEE7154F2878012807D12C70402189
:100860000848FFF755FD1248FFF770FE3078012861
:10087000F1D1347040210548FFF74AFD3846FFF7B3
:1008800065FEE8E77402002031000020B402002079
:1008900033000020300000203200002000E000E0A3
:1008A00000C000400400FA0500ED00E00020074011
:1008B00000100740D40800000000002034000000B1
:1008C000C80700000809000034000020C40400002C
:1008D000D807000000D8B8056000000000D8B805AF
:1008E0000000000000000000000000000100000007
:1008F00000000000000000000000000000000000F8
:080900000000000000000000EF
:04000005000000D522
:00000001FF
